{"contracts/DealRoomEscrow.sol":{"DealRoomEscrow":{"abi":[{"inputs":[{"internalType":"address","name":"_arbiter","type":"address"}],"stateMutability":"nonpayable","type":"constructor"},{"inputs":[],"name":"ArbiterDeadlineNotExpired","type":"error"},{"inputs":[],"name":"DealNotFound","type":"error"},{"inputs":[],"name":"IdenticalTokens","type":"error"},{"inputs":[],"name":"NotArbiter","type":"error"},{"inputs":[],"name":"NotMaker","type":"error"},{"inputs":[],"name":"NotParty","type":"error"},{"inputs":[],"name":"ReentrancyGuardReentrantCall","type":"error"},{"inputs":[{"internalType":"address","name":"token","type":"address"}],"name":"SafeERC20FailedOperation","type":"error"},{"inputs":[],"name":"TakerCannotBeMaker","type":"error"},{"inputs":[],"name":"TakerDeadlineDurationTooLong","type":"error"},{"inputs":[],"name":"TakerDeadlineDurationZero","type":"error"},{"inputs":[],"name":"TakerDeadlineExpired","type":"error"},{"inputs":[],"name":"TakerDeadlineNotExpired","type":"error"},{"inputs":[],"name":"UnauthorizedTaker","type":"error"},{"inputs":[{"internalType":"enum DealRoomEscrow.DealStatus","name":"current","type":"uint8"},{"internalType":"enum DealRoomEscrow.DealStatus","name":"required","type":"uint8"}],"name":"WrongStatus","type":"error"},{"inputs":[],"name":"ZeroAddress","type":"error"},{"inputs":[],"name":"ZeroAmount","type":"error"},{"anonymous":false,"inputs":[{"indexed":true,"internalType":"uint256","name":"dealId","type":"uint256"}],"name":"DealCompleted","type":"event"},{"anonymous":false,"inputs":[{"indexed":true,"internalType":"uint256","name":"dealId","type":"uint256"},{"indexed":true,"internalType":"address","name":"maker","type":"address"},{"indexed":false,"internalType":"address","name":"makerToken","type":"address"},{"indexed":false,"internalType":"uint256","name":"makerAmount","type":"uint256"},{"indexed":false,"internalType":"address","name":"takerToken","type":"address"},{"indexed":false,"internalType":"uint256","name":"takerAmount","type":"uint256"},{"indexed":false,"internalType":"address","name":"allowedTaker","type":"address"},{"indexed":false,"internalType":"uint256","name":"takerDeadline","type":"uint256"}],"name":"DealCreated","type":"event"},{"anonymous":false,"inputs":[{"indexed":true,"internalType":"uint256","name":"dealId","type":"uint256"},{"indexed":true,"internalType":"address","name":"taker","type":"address"},{"indexed":false,"internalType":"uint256","name":"arbiterDeadline","type":"uint256"}],"name":"DealFunded","type":"event"},{"anonymous":false,"inputs":[{"indexed":true,"internalType":"uint256","name":"dealId","type":"uint256"}],"name":"DealRefunded","type":"event"},{"inputs":[],"name":"ARBITER_TIMEOUT","outputs":[{"internalType":"uint256","name":"","type":"uint256"}],"stateMutability":"view","type":"function"},{"inputs":[],"name":"MAX_TAKER_DEADLINE_DURATION","outputs":[{"internalType":"uint256","name":"","type":"uint256"}],"stateMutability":"view","type":"function"},{"inputs":[{"internalType":"uint256","name":"dealId","type":"uint256"}],"name":"approveDeal","outputs":[],"stateMutability":"nonpayable","type":"function"},{"inputs":[],"name":"arbiter","outputs":[{"internalType":"address","name":"","type":"address"}],"stateMutability":"view","type":"function"},{"inputs":[{"internalType":"uint256","name":"dealId","type":"uint256"}],"name":"claimArbiterTimeout","outputs":[],"stateMutability":"nonpayable","type":"function"},{"inputs":[{"internalType":"uint256","name":"dealId","type":"uint256"}],"name":"claimMakerTimeout","outputs":[],"stateMutability":"nonpayable","type":"function"},{"inputs":[{"internalType":"address","name":"makerToken","type":"address"},{"internalType":"uint256","name":"makerAmount","type":"uint256"},{"internalType":"address","name":"takerToken","type":"address"},{"internalType":"uint256","name":"takerAmount","type":"uint256"},{"internalType":"address","name":"allowedTaker","type":"address"},{"internalType":"uint256","name":"takerDeadlineDuration","type":"uint256"}],"name":"createDeal","outputs":[{"internalType":"uint256","name":"dealId","type":"uint256"}],"stateMutability":"nonpayable","type":"function"},{"inputs":[],"name":"dealCount","outputs":[{"internalType":"uint256","name":"","type":"uint256"}],"stateMutability":"view","type":"function"},{"inputs":[{"internalType":"uint256","name":"","type":"uint256"}],"name":"deals","outputs":[{"internalType":"address","name":"maker","type":"address"},{"internalType":"address","name":"taker","type":"address"},{"internalType":"address","name":"makerToken","type":"address"},{"internalType":"address","name":"takerToken","type":"address"},{"internalType":"uint256","name":"makerAmount","type":"uint256"},{"internalType":"uint256","name":"takerAmount","type":"uint256"},{"internalType":"enum DealRoomEscrow.DealStatus","name":"status","type":"uint8"},{"internalType":"uint256","name":"takerDeadline","type":"uint256"},{"internalType":"uint256","name":"arbiterDeadline","type":"uint256"}],"stateMutability":"view","type":"function"},{"inputs":[{"internalType":"uint256","name":"dealId","type":"uint256"}],"name":"fundDeal","outputs":[],"stateMutability":"nonpayable","type":"function"},{"inputs":[{"internalType":"uint256","name":"dealId","type":"uint256"}],"name":"getDeal","outputs":[{"components":[{"internalType":"address","name":"maker","type":"address"},{"internalType":"address","name":"taker","type":"address"},{"internalType":"address","name":"makerToken","type":"address"},{"internalType":"address","name":"takerToken","type":"address"},{"internalType":"uint256","name":"makerAmount","type":"uint256"},{"internalType":"uint256","name":"takerAmount","type":"uint256"},{"internalType":"enum DealRoomEscrow.DealStatus","name":"status","type":"uint8"},{"internalType":"uint256","name":"takerDeadline","type":"uint256"},{"internalType":"uint256","name":"arbiterDeadline","type":"uint256"}],"internalType":"struct DealRoomEscrow.Deal","name":"","type":"tuple"}],"stateMutability":"view","type":"function"},{"inputs":[{"internalType":"uint256","name":"dealId","type":"uint256"}],"name":"rejectDeal","outputs":[],"stateMutability":"nonpayable","type":"function"}],"evm":{"bytecode":{"linkReferences":{},"object":"60a060405234801561001057600080fd5b506040516110b63803806110b683398101604081905261002f9161008b565b60017f9b779b17422d0df92223018b32b4d1fa46e071723d6817e2486d003becc55f00556001600160a01b03811661007a5760405163d92e233d60e01b815260040160405180910390fd5b6001600160a01b03166080526100bb565b60006020828403121561009d57600080fd5b81516001600160a01b03811681146100b457600080fd5b9392505050565b608051610fd26100e460003960008181610209015281816105790152610a5e0152610fd26000f3fe608060405234801561001057600080fd5b50600436106100b45760003560e01c8063bfc2ae7111610071578063bfc2ae71146101c1578063c9258091146101d4578063eadb3c9c146101de578063eeacb6b0146101e7578063f7074219146101f1578063fe25e00a1461020457600080fd5b806303988f84146100b95780631d0c1ba8146101455780635f9d8efb146101665780636d1439671461017b57806382fd5bac1461018e57806385d60ec6146101ae575b600080fd5b6101276100c7366004610d71565b60016020819052600091825260409091208054918101546002820154600383015460048401546005850154600686015460078701546008909701546001600160a01b03988916989687169795871696909416949293919260ff9091169189565b60405161013c99989796959493929190610dc2565b60405180910390f35b610158610153366004610e35565b610243565b60405190815260200161013c565b610179610174366004610d71565b610566565b005b610179610189366004610d71565b61066f565b6101a161019c366004610d71565b61071b565b60405161013c9190610e94565b6101796101bc366004610d71565b610820565b6101796101cf366004610d71565b610966565b61015862093a8081565b61015860005481565b6101586202a30081565b6101796101ff366004610d71565b610a4b565b61022b7f000000000000000000000000000000000000000000000000000000000000000081565b6040516001600160a01b03909116815260200161013c565b600061024d610ab4565b6001600160a01b038716158061026a57506001600160a01b038516155b156102885760405163d92e233d60e01b815260040160405180910390fd5b846001600160a01b0316876001600160a01b0316036102ba57604051635c6d7b7360e01b815260040160405180910390fd5b856000036102db57604051631f2a200560e01b815260040160405180910390fd5b836000036102fc57604051631f2a200560e01b815260040160405180910390fd5b8160000361031d5760405163b0d288c160e01b815260040160405180910390fd5b62093a8082111561034157604051635711b49360e01b815260040160405180910390fd5b336001600160a01b0384160361036a5760405163d01eda0160e01b815260040160405180910390fd5b600080815461037890610f28565b91829055509050600061038b8342610f41565b9050604051806101200160405280336001600160a01b03168152602001856001600160a01b03168152602001896001600160a01b03168152602001876001600160a01b03168152602001888152602001868152602001600060038111156103f4576103f4610d8a565b8152602080820184905260006040928301819052858152600180835290839020845181546001600160a01b03199081166001600160a01b03928316178355938601518284018054861691831691909117905593850151600282018054851691861691909117905560608501516003808301805490951691909516179092556080840151600483015560a0840151600583015560c084015160068301805493949193909260ff199091169184908111156104af576104af610d8a565b021790555060e08201516007820155610100909101516008909101556104e06001600160a01b03891633308a610ad0565b604080516001600160a01b038a81168252602082018a905288811682840152606082018890528616608082015260a081018390529051339184917f26e9ff2e452f5ef9199235eec51b1377f1edee5e61bd4c08bc6d85fb96415abd9181900360c00190a35061055c6001600080516020610f7d83398151915255565b9695505050505050565b61056e610ab4565b336001600160a01b037f000000000000000000000000000000000000000000000000000000000000000016146105b75760405163665b32d360e11b815260040160405180910390fd5b60006105c282610b11565b90506105cf816001610b4c565b60068101805460ff19166002179055805460058201546003830154610602926001600160a01b0391821692911690610ba4565b600181015460048201546002830154610629926001600160a01b0391821692911690610ba4565b60405182907fe70f0403e69c896bbcf61b8ca0224ab04d6de1ade440bc896049efe6fe4e073190600090a25061066c6001600080516020610f7d83398151915255565b50565b610677610ab4565b600061068282610b11565b905061068f816001610b4c565b80546001600160a01b031633148015906106b6575060018101546001600160a01b03163314155b156106d45760405163c8ee2d1d60e01b815260040160405180910390fd5b80600801544210156106f957604051631ee1bdf360e21b815260040160405180910390fd5b6107038282610bde565b5061066c6001600080516020610f7d83398151915255565b61076a6040805161012081018252600080825260208201819052918101829052606081018290526080810182905260a081018290529060c0820190815260200160008152602001600081525090565b60008281526001602081815260409283902083516101208101855281546001600160a01b039081168252938201548416928101929092526002810154831693820193909352600380840154909216606082015260048301546080820152600583015460a0820152600683015490929160c084019160ff16908111156107f1576107f1610d8a565b600381111561080257610802610d8a565b81526007820154602082015260089091015460409091015292915050565b610828610ab4565b600061083382610b11565b9050610840816000610b4c565b80600701544210610864576040516398df8a5d60e01b815260040160405180910390fd5b60018101546001600160a01b03161580159061088d575060018101546001600160a01b03163314155b156108ab57604051630fb22aa560e21b815260040160405180910390fd5b600180820180546001600160a01b0319163317905560068201805460ff1916828002179055506108de6202a30042610f41565b600882015560058101546003820154610906916001600160a01b039091169033903090610ad0565b336001600160a01b0316827fcaee61ccea433411b2a8848cb622487f4368e8c231d05982e0f89e3eb7a1f8c8836008015460405161094691815260200190565b60405180910390a35061066c6001600080516020610f7d83398151915255565b61096e610ab4565b600061097982610b11565b9050610986816000610b4c565b80546001600160a01b031633146109b05760405163b331e42160e01b815260040160405180910390fd5b80600701544210156109d557604051631f38cb6f60e01b815260040160405180910390fd5b60068101805460ff19166003179055805460048201546002830154610a08926001600160a01b0391821692911690610ba4565b60405182907fd530c80e9cd545da84fc4400924631fdb0b7bfd9767c317a1fa55b4116c7be9b90600090a25061066c6001600080516020610f7d83398151915255565b610a53610ab4565b336001600160a01b037f00000000000000000000000000000000000000000000000000000000000000001614610a9c5760405163665b32d360e11b815260040160405180910390fd5b6000610aa782610b11565b90506106f9816001610b4c565b610abc610c67565b6002600080516020610f7d83398151915255565b610ade848484846001610c99565b610b0b57604051635274afe760e01b81526001600160a01b03851660048201526024015b60405180910390fd5b50505050565b600081815260016020526040902080546001600160a01b0316610b475760405163223da47360e21b815260040160405180910390fd5b919050565b806003811115610b5e57610b5e610d8a565b600683015460ff166003811115610b7757610b77610d8a565b14610ba057600682015460405163e064752b60e01b8152610b029160ff16908390600401610f5a565b5050565b610bb18383836001610d0b565b610bd957604051635274afe760e01b81526001600160a01b0384166004820152602401610b02565b505050565b60068101805460ff19166003179055805460048201546002830154610c11926001600160a01b0391821692911690610ba4565b600181015460058201546003830154610c38926001600160a01b0391821692911690610ba4565b60405182907fd530c80e9cd545da84fc4400924631fdb0b7bfd9767c317a1fa55b4116c7be9b90600090a25050565b600080516020610f7d83398151915254600203610c9757604051633ee5aeb560e01b815260040160405180910390fd5b565b6040516323b872dd60e01b60008181526001600160a01b038781166004528616602452604485905291602083606481808c5af192506001600051148316610cf9578383151615610cec573d6000823e3d81fd5b6000883b113d1516831692505b60405250600060605295945050505050565b60405163a9059cbb60e01b60008181526001600160a01b038616600452602485905291602083604481808b5af192506001600051148316610d65578383151615610d58573d6000823e3d81fd5b6000873b113d1516831692505b60405250949350505050565b600060208284031215610d8357600080fd5b5035919050565b634e487b7160e01b600052602160045260246000fd5b60048110610dbe57634e487b7160e01b600052602160045260246000fd5b9052565b6001600160a01b038a8116825289811660208301528881166040830152871660608201526080810186905260a081018590526101208101610e0660c0830186610da0565b60e08201939093526101000152979650505050505050565b80356001600160a01b0381168114610b4757600080fd5b60008060008060008060c08789031215610e4e57600080fd5b610e5787610e1e565b955060208701359450610e6c60408801610e1e565b935060608701359250610e8160808801610e1e565b915060a087013590509295509295509295565b81516001600160a01b03908116825260208084015182169083015260408084015182169083015260608084015191821690830152610120820190506080830151608083015260a083015160a083015260c0830151610ef560c0840182610da0565b5060e083015160e083015261010080840151818401525092915050565b634e487b7160e01b600052601160045260246000fd5b600060018201610f3a57610f3a610f12565b5060010190565b80820180821115610f5457610f54610f12565b92915050565b60408101610f688285610da0565b610f756020830184610da0565b939250505056fe9b779b17422d0df92223018b32b4d1fa46e071723d6817e2486d003becc55f00a2646970667358221220aadc529379f37280100670894b48dcb798e2fb92ac2f4cc23a5dea9ec9430d8364736f6c63430008180033","opcodes":"PUSH1 0xA0 PUSH1 0x40 MSTORE CALLVALUE DUP1 ISZERO PUSH2 0x10 JUMPI PUSH1 0x0 DUP1 REVERT JUMPDEST POP PUSH1 0x40 MLOAD PUSH2 0x10B6 CODESIZE SUB DUP1 PUSH2 0x10B6 DUP4 CODECOPY DUP2 ADD PUSH1 0x40 DUP2 SWAP1 MSTORE PUSH2 0x2F SWAP2 PUSH2 0x8B JUMP JUMPDEST PUSH1 0x1 PUSH32 0x9B779B17422D0DF92223018B32B4D1FA46E071723D6817E2486D003BECC55F00 SSTORE PUSH1 0x1 PUSH1 0x1 PUSH1 0xA0 SHL SUB DUP2 AND PUSH2 0x7A JUMPI PUSH1 0x40 MLOAD PUSH4 0xD92E233D PUSH1 0xE0 SHL DUP2 MSTORE PUSH1 0x4 ADD PUSH1 0x40 MLOAD DUP1 SWAP2 SUB SWAP1 REVERT JUMPDEST PUSH1 0x1 PUSH1 0x1 PUSH1 0xA0 SHL SUB AND PUSH1 0x80 MSTORE PUSH2 0xBB JUMP JUMPDEST PUSH1 0x0 PUSH1 0x20 DUP3 DUP5 SUB SLT ISZERO PUSH2 0x9D JUMPI PUSH1 0x0 DUP1 REVERT JUMPDEST DUP2 MLOAD PUSH1 0x1 PUSH1 0x1 PUSH1 0xA0 SHL SUB DUP2 AND DUP2 EQ PUSH2 0xB4 JUMPI PUSH1 0x0 DUP1 REVERT JUMPDEST SWAP4 SWAP3 POP POP POP JUMP JUMPDEST PUSH1 0x80 MLOAD PUSH2 0xFD2 PUSH2 0xE4 PUSH1 0x0 CODECOPY PUSH1 0x0 DUP2 DUP2 PUSH2 0x209 ADD MSTORE DUP2 DUP2 PUSH2 0x579 ADD MSTORE PUSH2 0xA5E ADD MSTORE PUSH2 0xFD2 PUSH1 0x0 RETURN INVALID PUSH1 0x80 PUSH1 0x40 MSTORE CALLVALUE DUP1 ISZERO PUSH2 0x10 JUMPI PUSH1 0x0 DUP1 REVERT JUMPDEST POP PUSH1 0x4 CALLDATASIZE LT PUSH2 0xB4 JUMPI PUSH1 0x0 CALLDATALOAD PUSH1 0xE0 SHR DUP1 PUSH4 0xBFC2AE71 GT PUSH2 0x71 JUMPI DUP1 PUSH4 0xBFC2AE71 EQ PUSH2 0x1C1 JUMPI DUP1 PUSH4 0xC9258091 EQ PUSH2 0x1D4 JUMPI DUP1 PUSH4 0xEADB3C9C EQ PUSH2 0x1DE JUMPI DUP1 PUSH4 0xEEACB6B0 EQ PUSH2 0x1E7 JUMPI DUP1 PUSH4 0xF7074219 EQ PUSH2 0x1F1 JUMPI DUP1 PUSH4 0xFE25E00A EQ PUSH2 0x204 JUMPI PUSH1 0x0 DUP1 REVERT JUMPDEST DUP1 PUSH4 0x3988F84 EQ PUSH2 0xB9 JUMPI DUP1 PUSH4 0x1D0C1BA8 EQ PUSH2 0x145 JUMPI DUP1 PUSH4 0x5F9D8EFB EQ PUSH2 0x166 JUMPI DUP1 PUSH4 0x6D143967 EQ PUSH2 0x17B JUMPI DUP1 PUSH4 0x82FD5BAC EQ PUSH2 0x18E JUMPI DUP1 PUSH4 0x85D60EC6 EQ PUSH2 0x1AE JUMPI JUMPDEST PUSH1 0x0 DUP1 REVERT JUMPDEST PUSH2 0x127 PUSH2 0xC7 CALLDATASIZE PUSH1 0x4 PUSH2 0xD71 JUMP JUMPDEST PUSH1 0x1 PUSH1 0x20 DUP2 SWAP1 MSTORE PUSH1 0x0 SWAP2 DUP3 MSTORE PUSH1 0x40 SWAP1 SWAP2 KECCAK256 DUP1 SLOAD SWAP2 DUP2 ADD SLOAD PUSH1 0x2 DUP3 ADD SLOAD PUSH1 0x3 DUP4 ADD SLOAD PUSH1 0x4 DUP5 ADD SLOAD PUSH1 0x5 DUP6 ADD SLOAD PUSH1 0x6 DUP7 ADD SLOAD PUSH1 0x7 DUP8 ADD SLOAD PUSH1 0x8 SWAP1 SWAP8 ADD SLOAD PUSH1 0x1 PUSH1 0x1 PUSH1 0xA0 SHL SUB SWAP9 DUP10 AND SWAP9 SWAP7 DUP8 AND SWAP8 SWAP6 DUP8 AND SWAP7 SWAP1 SWAP5 AND SWAP5 SWAP3 SWAP4 SWAP2 SWAP3 PUSH1 0xFF SWAP1 SWAP2 AND SWAP2 DUP10 JUMP JUMPDEST PUSH1 0x40 MLOAD PUSH2 0x13C SWAP10 SWAP9 SWAP8 SWAP7 SWAP6 SWAP5 SWAP4 SWAP3 SWAP2 SWAP1 PUSH2 0xDC2 JUMP JUMPDEST PUSH1 0x40 MLOAD DUP1 SWAP2 SUB SWAP1 RETURN JUMPDEST PUSH2 0x158 PUSH2 0x153 CALLDATASIZE PUSH1 0x4 PUSH2 0xE35 JUMP JUMPDEST PUSH2 0x243 JUMP JUMPDEST PUSH1 0x40 MLOAD SWAP1 DUP2 MSTORE PUSH1 0x20 ADD PUSH2 0x13C JUMP JUMPDEST PUSH2 0x179 PUSH2 0x174 CALLDATASIZE PUSH1 0x4 PUSH2 0xD71 JUMP JUMPDEST PUSH2 0x566 JUMP JUMPDEST STOP JUMPDEST PUSH2 0x179 PUSH2 0x189 CALLDATASIZE PUSH1 0x4 PUSH2 0xD71 JUMP JUMPDEST PUSH2 0x66F JUMP JUMPDEST PUSH2 0x1A1 PUSH2 0x19C CALLDATASIZE PUSH1 0x4 PUSH2 0xD71 JUMP JUMPDEST PUSH2 0x71B JUMP JUMPDEST PUSH1 0x40 MLOAD PUSH2 0x13C SWAP2 SWAP1 PUSH2 0xE94 JUMP JUMPDEST PUSH2 0x179 PUSH2 0x1BC CALLDATASIZE PUSH1 0x4 PUSH2 0xD71 JUMP JUMPDEST PUSH2 0x820 JUMP JUMPDEST PUSH2 0x179 PUSH2 0x1CF CALLDATASIZE PUSH1 0x4 PUSH2 0xD71 JUMP JUMPDEST PUSH2 0x966 JUMP JUMPDEST PUSH2 0x158 PUSH3 0x93A80 DUP2 JUMP JUMPDEST PUSH2 0x158 PUSH1 0x0 SLOAD DUP2 JUMP JUMPDEST PUSH2 0x158 PUSH3 0x2A300 DUP2 JUMP JUMPDEST PUSH2 0x179 PUSH2 0x1FF CALLDATASIZE PUSH1 0x4 PUSH2 0xD71 JUMP JUMPDEST PUSH2 0xA4B JUMP JUMPDEST PUSH2 0x22B PUSH32 0x0 DUP2 JUMP JUMPDEST PUSH1 0x40 MLOAD PUSH1 0x1 PUSH1 0x1 PUSH1 0xA0 SHL SUB SWAP1 SWAP2 AND DUP2 MSTORE PUSH1 0x20 ADD PUSH2 0x13C JUMP JUMPDEST PUSH1 0x0 PUSH2 0x24D PUSH2 0xAB4 JUMP JUMPDEST PUSH1 0x1 PUSH1 0x1 PUSH1 0xA0 SHL SUB DUP8 AND ISZERO DUP1 PUSH2 0x26A JUMPI POP PUSH1 0x1 PUSH1 0x1 PUSH1 0xA0 SHL SUB DUP6 AND ISZERO JUMPDEST ISZERO PUSH2 0x288 JUMPI PUSH1 0x40 MLOAD PUSH4 0xD92E233D PUSH1 0xE0 SHL DUP2 MSTORE PUSH1 0x4 ADD PUSH1 0x40 MLOAD DUP1 SWAP2 SUB SWAP1 REVERT JUMPDEST DUP5 PUSH1 0x1 PUSH1 0x1 PUSH1 0xA0 SHL SUB AND DUP8 PUSH1 0x1 PUSH1 0x1 PUSH1 0xA0 SHL SUB AND SUB PUSH2 0x2BA JUMPI PUSH1 0x40 MLOAD PUSH4 0x5C6D7B73 PUSH1 0xE0 SHL DUP2 MSTORE PUSH1 0x4 ADD PUSH1 0x40 MLOAD DUP1 SWAP2 SUB SWAP1 REVERT JUMPDEST DUP6 PUSH1 0x0 SUB PUSH2 0x2DB JUMPI PUSH1 0x40 MLOAD PUSH4 0x1F2A2005 PUSH1 0xE0 SHL DUP2 MSTORE PUSH1 0x4 ADD PUSH1 0x40 MLOAD DUP1 SWAP2 SUB SWAP1 REVERT JUMPDEST DUP4 PUSH1 0x0 SUB PUSH2 0x2FC JUMPI PUSH1 0x40 MLOAD PUSH4 0x1F2A2005 PUSH1 0xE0 SHL DUP2 MSTORE PUSH1 0x4 ADD PUSH1 0x40 MLOAD DUP1 SWAP2 SUB SWAP1 REVERT JUMPDEST DUP2 PUSH1 0x0 SUB PUSH2 0x31D JUMPI PUSH1 0x40 MLOAD PUSH4 0xB0D288C1 PUSH1 0xE0 SHL DUP2 MSTORE PUSH1 0x4 ADD PUSH1 0x40 MLOAD DUP1 SWAP2 SUB SWAP1 REVERT JUMPDEST PUSH3 0x93A80 DUP3 GT ISZERO PUSH2 0x341 JUMPI PUSH1 0x40 MLOAD PUSH4 0x5711B493 PUSH1 0xE0 SHL DUP2 MSTORE PUSH1 0x4 ADD PUSH1 0x40 MLOAD DUP1 SWAP2 SUB SWAP1 REVERT JUMPDEST CALLER PUSH1 0x1 PUSH1 0x1 PUSH1 0xA0 SHL SUB DUP5 AND SUB PUSH2 0x36A JUMPI PUSH1 0x40 MLOAD PUSH4 0xD01EDA01 PUSH1 0xE0 SHL DUP2 MSTORE PUSH1 0x4 ADD PUSH1 0x40 MLOAD DUP1 SWAP2 SUB SWAP1 REVERT JUMPDEST PUSH1 0x0 DUP1 DUP2 SLOAD PUSH2 0x378 SWAP1 PUSH2 0xF28 JUMP JUMPDEST SWAP2 DUP3 SWAP1 SSTORE POP SWAP1 POP PUSH1 0x0 PUSH2 0x38B DUP4 TIMESTAMP PUSH2 0xF41 JUMP JUMPDEST SWAP1 POP PUSH1 0x40 MLOAD DUP1 PUSH2 0x120 ADD PUSH1 0x40 MSTORE DUP1 CALLER PUSH1 0x1 PUSH1 0x1 PUSH1 0xA0 SHL SUB AND DUP2 MSTORE PUSH1 0x20 ADD DUP6 PUSH1 0x1 PUSH1 0x1 PUSH1 0xA0 SHL SUB AND DUP2 MSTORE PUSH1 0x20 ADD DUP10 PUSH1 0x1 PUSH1 0x1 PUSH1 0xA0 SHL SUB AND DUP2 MSTORE PUSH1 0x20 ADD DUP8 PUSH1 0x1 PUSH1 0x1 PUSH1 0xA0 SHL SUB AND DUP2 MSTORE PUSH1 0x20 ADD DUP9 DUP2 MSTORE PUSH1 0x20 ADD DUP7 DUP2 MSTORE PUSH1 0x20 ADD PUSH1 0x0 PUSH1 0x3 DUP2 GT ISZERO PUSH2 0x3F4 JUMPI PUSH2 0x3F4 PUSH2 0xD8A JUMP JUMPDEST DUP2 MSTORE PUSH1 0x20 DUP1 DUP3 ADD DUP5 SWAP1 MSTORE PUSH1 0x0 PUSH1 0x40 SWAP3 DUP4 ADD DUP2 SWAP1 MSTORE DUP6 DUP2 MSTORE PUSH1 0x1 DUP1 DUP4 MSTORE SWAP1 DUP4 SWAP1 KECCAK256 DUP5 MLOAD DUP2 SLOAD PUSH1 0x1 PUSH1 0x1 PUSH1 0xA0 SHL SUB NOT SWAP1 DUP2 AND PUSH1 0x1 PUSH1 0x1 PUSH1 0xA0 SHL SUB SWAP3 DUP4 AND OR DUP4 SSTORE SWAP4 DUP7 ADD MLOAD DUP3 DUP5 ADD DUP1 SLOAD DUP7 AND SWAP2 DUP4 AND SWAP2 SWAP1 SWAP2 OR SWAP1 SSTORE SWAP4 DUP6 ADD MLOAD PUSH1 0x2 DUP3 ADD DUP1 SLOAD DUP6 AND SWAP2 DUP7 AND SWAP2 SWAP1 SWAP2 OR SWAP1 SSTORE PUSH1 0x60 DUP6 ADD MLOAD PUSH1 0x3 DUP1 DUP4 ADD DUP1 SLOAD SWAP1 SWAP6 AND SWAP2 SWAP1 SWAP6 AND OR SWAP1 SWAP3 SSTORE PUSH1 0x80 DUP5 ADD MLOAD PUSH1 0x4 DUP4 ADD SSTORE PUSH1 0xA0 DUP5 ADD MLOAD PUSH1 0x5 DUP4 ADD SSTORE PUSH1 0xC0 DUP5 ADD MLOAD PUSH1 0x6 DUP4 ADD DUP1 SLOAD SWAP4 SWAP5 SWAP2 SWAP4 SWAP1 SWAP3 PUSH1 0xFF NOT SWAP1 SWAP2 AND SWAP2 DUP5 SWAP1 DUP2 GT ISZERO PUSH2 0x4AF JUMPI PUSH2 0x4AF PUSH2 0xD8A JUMP JUMPDEST MUL OR SWAP1 SSTORE POP PUSH1 0xE0 DUP3 ADD MLOAD PUSH1 0x7 DUP3 ADD SSTORE PUSH2 0x100 SWAP1 SWAP2 ADD MLOAD PUSH1 0x8 SWAP1 SWAP2 ADD SSTORE PUSH2 0x4E0 PUSH1 0x1 PUSH1 0x1 PUSH1 0xA0 SHL SUB DUP10 AND CALLER ADDRESS DUP11 PUSH2 0xAD0 JUMP JUMPDEST PUSH1 0x40 DUP1 MLOAD PUSH1 0x1 PUSH1 0x1 PUSH1 0xA0 SHL SUB DUP11 DUP2 AND DUP3 MSTORE PUSH1 0x20 DUP3 ADD DUP11 SWAP1 MSTORE DUP9 DUP2 AND DUP3 DUP5 ADD MSTORE PUSH1 0x60 DUP3 ADD DUP9 SWAP1 MSTORE DUP7 AND PUSH1 0x80 DUP3 ADD MSTORE PUSH1 0xA0 DUP2 ADD DUP4 SWAP1 MSTORE SWAP1 MLOAD CALLER SWAP2 DUP5 SWAP2 PUSH32 0x26E9FF2E452F5EF9199235EEC51B1377F1EDEE5E61BD4C08BC6D85FB96415ABD SWAP2 DUP2 SWAP1 SUB PUSH1 0xC0 ADD SWAP1 LOG3 POP PUSH2 0x55C PUSH1 0x1 PUSH1 0x0 DUP1 MLOAD PUSH1 0x20 PUSH2 0xF7D DUP4 CODECOPY DUP2 MLOAD SWAP2 MSTORE SSTORE JUMP JUMPDEST SWAP7 SWAP6 POP POP POP POP POP POP JUMP JUMPDEST PUSH2 0x56E PUSH2 0xAB4 JUMP JUMPDEST CALLER PUSH1 0x1 PUSH1 0x1 PUSH1 0xA0 SHL SUB PUSH32 0x0 AND EQ PUSH2 0x5B7 JUMPI PUSH1 0x40 MLOAD PUSH4 0x665B32D3 PUSH1 0xE1 SHL DUP2 MSTORE PUSH1 0x4 ADD PUSH1 0x40 MLOAD DUP1 SWAP2 SUB SWAP1 REVERT JUMPDEST PUSH1 0x0 PUSH2 0x5C2 DUP3 PUSH2 0xB11 JUMP JUMPDEST SWAP1 POP PUSH2 0x5CF DUP2 PUSH1 0x1 PUSH2 0xB4C JUMP JUMPDEST PUSH1 0x6 DUP2 ADD DUP1 SLOAD PUSH1 0xFF NOT AND PUSH1 0x2 OR SWAP1 SSTORE DUP1 SLOAD PUSH1 0x5 DUP3 ADD SLOAD PUSH1 0x3 DUP4 ADD SLOAD PUSH2 0x602 SWAP3 PUSH1 0x1 PUSH1 0x1 PUSH1 0xA0 SHL SUB SWAP2 DUP3 AND SWAP3 SWAP2 AND SWAP1 PUSH2 0xBA4 JUMP JUMPDEST PUSH1 0x1 DUP2 ADD SLOAD PUSH1 0x4 DUP3 ADD SLOAD PUSH1 0x2 DUP4 ADD SLOAD PUSH2 0x629 SWAP3 PUSH1 0x1 PUSH1 0x1 PUSH1 0xA0 SHL SUB SWAP2 DUP3 AND SWAP3 SWAP2 AND SWAP1 PUSH2 0xBA4 JUMP JUMPDEST PUSH1 0x40 MLOAD DUP3 SWAP1 PUSH32 0xE70F0403E69C896BBCF61B8CA0224AB04D6DE1ADE440BC896049EFE6FE4E0731 SWAP1 PUSH1 0x0 SWAP1 LOG2 POP PUSH2 0x66C PUSH1 0x1 PUSH1 0x0 DUP1 MLOAD PUSH1 0x20 PUSH2 0xF7D DUP4 CODECOPY DUP2 MLOAD SWAP2 MSTORE SSTORE JUMP JUMPDEST POP JUMP JUMPDEST PUSH2 0x677 PUSH2 0xAB4 JUMP JUMPDEST PUSH1 0x0 PUSH2 0x682 DUP3 PUSH2 0xB11 JUMP JUMPDEST SWAP1 POP PUSH2 0x68F DUP2 PUSH1 0x1 PUSH2 0xB4C JUMP JUMPDEST DUP1 SLOAD PUSH1 0x1 PUSH1 0x1 PUSH1 0xA0 SHL SUB AND CALLER EQ DUP1 ISZERO SWAP1 PUSH2 0x6B6 JUMPI POP PUSH1 0x1 DUP2 ADD SLOAD PUSH1 0x1 PUSH1 0x1 PUSH1 0xA0 SHL SUB AND CALLER EQ ISZERO JUMPDEST ISZERO PUSH2 0x6D4 JUMPI PUSH1 0x40 MLOAD PUSH4 0xC8EE2D1D PUSH1 0xE0 SHL DUP2 MSTORE PUSH1 0x4 ADD PUSH1 0x40 MLOAD DUP1 SWAP2 SUB SWAP1 REVERT JUMPDEST DUP1 PUSH1 0x8 ADD SLOAD TIMESTAMP LT ISZERO PUSH2 0x6F9 JUMPI PUSH1 0x40 MLOAD PUSH4 0x1EE1BDF3 PUSH1 0xE2 SHL DUP2 MSTORE PUSH1 0x4 ADD PUSH1 0x40 MLOAD DUP1 SWAP2 SUB SWAP1 REVERT JUMPDEST PUSH2 0x703 DUP3 DUP3 PUSH2 0xBDE JUMP JUMPDEST POP PUSH2 0x66C PUSH1 0x1 PUSH1 0x0 DUP1 MLOAD PUSH1 0x20 PUSH2 0xF7D DUP4 CODECOPY DUP2 MLOAD SWAP2 MSTORE SSTORE JUMP JUMPDEST PUSH2 0x76A PUSH1 0x40 DUP1 MLOAD PUSH2 0x120 DUP2 ADD DUP3 MSTORE PUSH1 0x0 DUP1 DUP3 MSTORE PUSH1 0x20 DUP3 ADD DUP2 SWAP1 MSTORE SWAP2 DUP2 ADD DUP3 SWAP1 MSTORE PUSH1 0x60 DUP2 ADD DUP3 SWAP1 MSTORE PUSH1 0x80 DUP2 ADD DUP3 SWAP1 MSTORE PUSH1 0xA0 DUP2 ADD DUP3 SWAP1 MSTORE SWAP1 PUSH1 0xC0 DUP3 ADD SWAP1 DUP2 MSTORE PUSH1 0x20 ADD PUSH1 0x0 DUP2 MSTORE PUSH1 0x20 ADD PUSH1 0x0 DUP2 MSTORE POP SWAP1 JUMP JUMPDEST PUSH1 0x0 DUP3 DUP2 MSTORE PUSH1 0x1 PUSH1 0x20 DUP2 DUP2 MSTORE PUSH1 0x40 SWAP3 DUP4 SWAP1 KECCAK256 DUP4 MLOAD PUSH2 0x120 DUP2 ADD DUP6 MSTORE DUP2 SLOAD PUSH1 0x1 PUSH1 0x1 PUSH1 0xA0 SHL SUB SWAP1 DUP2 AND DUP3 MSTORE SWAP4 DUP3 ADD SLOAD DUP5 AND SWAP3 DUP2 ADD SWAP3 SWAP1 SWAP3 MSTORE PUSH1 0x2 DUP2 ADD SLOAD DUP4 AND SWAP4 DUP3 ADD SWAP4 SWAP1 SWAP4 MSTORE PUSH1 0x3 DUP1 DUP5 ADD SLOAD SWAP1 SWAP3 AND PUSH1 0x60 DUP3 ADD MSTORE PUSH1 0x4 DUP4 ADD SLOAD PUSH1 0x80 DUP3 ADD MSTORE PUSH1 0x5 DUP4 ADD SLOAD PUSH1 0xA0 DUP3 ADD MSTORE PUSH1 0x6 DUP4 ADD SLOAD SWAP1 SWAP3 SWAP2 PUSH1 0xC0 DUP5 ADD SWAP2 PUSH1 0xFF AND SWAP1 DUP2 GT ISZERO PUSH2 0x7F1 JUMPI PUSH2 0x7F1 PUSH2 0xD8A JUMP JUMPDEST PUSH1 0x3 DUP2 GT ISZERO PUSH2 0x802 JUMPI PUSH2 0x802 PUSH2 0xD8A JUMP JUMPDEST DUP2 MSTORE PUSH1 0x7 DUP3 ADD SLOAD PUSH1 0x20 DUP3 ADD MSTORE PUSH1 0x8 SWAP1 SWAP2 ADD SLOAD PUSH1 0x40 SWAP1 SWAP2 ADD MSTORE SWAP3 SWAP2 POP POP JUMP JUMPDEST PUSH2 0x828 PUSH2 0xAB4 JUMP JUMPDEST PUSH1 0x0 PUSH2 0x833 DUP3 PUSH2 0xB11 JUMP JUMPDEST SWAP1 POP PUSH2 0x840 DUP2 PUSH1 0x0 PUSH2 0xB4C JUMP JUMPDEST DUP1 PUSH1 0x7 ADD SLOAD TIMESTAMP LT PUSH2 0x864 JUMPI PUSH1 0x40 MLOAD PUSH4 0x98DF8A5D PUSH1 0xE0 SHL DUP2 MSTORE PUSH1 0x4 ADD PUSH1 0x40 MLOAD DUP1 SWAP2 SUB SWAP1 REVERT JUMPDEST PUSH1 0x1 DUP2 ADD SLOAD PUSH1 0x1 PUSH1 0x1 PUSH1 0xA0 SHL SUB AND ISZERO DUP1 ISZERO SWAP1 PUSH2 0x88D JUMPI POP PUSH1 0x1 DUP2 ADD SLOAD PUSH1 0x1 PUSH1 0x1 PUSH1 0xA0 SHL SUB AND CALLER EQ ISZERO JUMPDEST ISZERO PUSH2 0x8AB JUMPI PUSH1 0x40 MLOAD PUSH4 0xFB22AA5 PUSH1 0xE2 SHL DUP2 MSTORE PUSH1 0x4 ADD PUSH1 0x40 MLOAD DUP1 SWAP2 SUB SWAP1 REVERT JUMPDEST PUSH1 0x1 DUP1 DUP3 ADD DUP1 SLOAD PUSH1 0x1 PUSH1 0x1 PUSH1 0xA0 SHL SUB NOT AND CALLER OR SWAP1 SSTORE PUSH1 0x6 DUP3 ADD DUP1 SLOAD PUSH1 0xFF NOT AND DUP3 DUP1 MUL OR SWAP1 SSTORE POP PUSH2 0x8DE PUSH3 0x2A300 TIMESTAMP PUSH2 0xF41 JUMP JUMPDEST PUSH1 0x8 DUP3 ADD SSTORE PUSH1 0x5 DUP2 ADD SLOAD PUSH1 0x3 DUP3 ADD SLOAD PUSH2 0x906 SWAP2 PUSH1 0x1 PUSH1 0x1 PUSH1 0xA0 SHL SUB SWAP1 SWAP2 AND SWAP1 CALLER SWAP1 ADDRESS SWAP1 PUSH2 0xAD0 JUMP JUMPDEST CALLER PUSH1 0x1 PUSH1 0x1 PUSH1 0xA0 SHL SUB AND DUP3 PUSH32 0xCAEE61CCEA433411B2A8848CB622487F4368E8C231D05982E0F89E3EB7A1F8C8 DUP4 PUSH1 0x8 ADD SLOAD PUSH1 0x40 MLOAD PUSH2 0x946 SWAP2 DUP2 MSTORE PUSH1 0x20 ADD SWAP1 JUMP JUMPDEST PUSH1 0x40 MLOAD DUP1 SWAP2 SUB SWAP1 LOG3 POP PUSH2 0x66C PUSH1 0x1 PUSH1 0x0 DUP1 MLOAD PUSH1 0x20 PUSH2 0xF7D DUP4 CODECOPY DUP2 MLOAD SWAP2 MSTORE SSTORE JUMP JUMPDEST PUSH2 0x96E PUSH2 0xAB4 JUMP JUMPDEST PUSH1 0x0 PUSH2 0x979 DUP3 PUSH2 0xB11 JUMP JUMPDEST SWAP1 POP PUSH2 0x986 DUP2 PUSH1 0x0 PUSH2 0xB4C JUMP JUMPDEST DUP1 SLOAD PUSH1 0x1 PUSH1 0x1 PUSH1 0xA0 SHL SUB AND CALLER EQ PUSH2 0x9B0 JUMPI PUSH1 0x40 MLOAD PUSH4 0xB331E421 PUSH1 0xE0 SHL DUP2 MSTORE PUSH1 0x4 ADD PUSH1 0x40 MLOAD DUP1 SWAP2 SUB SWAP1 REVERT JUMPDEST DUP1 PUSH1 0x7 ADD SLOAD TIMESTAMP LT ISZERO PUSH2 0x9D5 JUMPI PUSH1 0x40 MLOAD PUSH4 0x1F38CB6F PUSH1 0xE0 SHL DUP2 MSTORE PUSH1 0x4 ADD PUSH1 0x40 MLOAD DUP1 SWAP2 SUB SWAP1 REVERT JUMPDEST PUSH1 0x6 DUP2 ADD DUP1 SLOAD PUSH1 0xFF NOT AND PUSH1 0x3 OR SWAP1 SSTORE DUP1 SLOAD PUSH1 0x4 DUP3 ADD SLOAD PUSH1 0x2 DUP4 ADD SLOAD PUSH2 0xA08 SWAP3 PUSH1 0x1 PUSH1 0x1 PUSH1 0xA0 SHL SUB SWAP2 DUP3 AND SWAP3 SWAP2 AND SWAP1 PUSH2 0xBA4 JUMP JUMPDEST PUSH1 0x40 MLOAD DUP3 SWAP1 PUSH32 0xD530C80E9CD545DA84FC4400924631FDB0B7BFD9767C317A1FA55B4116C7BE9B SWAP1 PUSH1 0x0 SWAP1 LOG2 POP PUSH2 0x66C PUSH1 0x1 PUSH1 0x0 DUP1 MLOAD PUSH1 0x20 PUSH2 0xF7D DUP4 CODECOPY DUP2 MLOAD SWAP2 MSTORE SSTORE JUMP JUMPDEST PUSH2 0xA53 PUSH2 0xAB4 JUMP JUMPDEST CALLER PUSH1 0x1 PUSH1 0x1 PUSH1 0xA0 SHL SUB PUSH32 0x0 AND EQ PUSH2 0xA9C JUMPI PUSH1 0x40 MLOAD PUSH4 0x665B32D3 PUSH1 0xE1 SHL DUP2 MSTORE PUSH1 0x4 ADD PUSH1 0x40 MLOAD DUP1 SWAP2 SUB SWAP1 REVERT JUMPDEST PUSH1 0x0 PUSH2 0xAA7 DUP3 PUSH2 0xB11 JUMP JUMPDEST SWAP1 POP PUSH2 0x6F9 DUP2 PUSH1 0x1 PUSH2 0xB4C JUMP JUMPDEST PUSH2 0xABC PUSH2 0xC67 JUMP JUMPDEST PUSH1 0x2 PUSH1 0x0 DUP1 MLOAD PUSH1 0x20 PUSH2 0xF7D DUP4 CODECOPY DUP2 MLOAD SWAP2 MSTORE SSTORE JUMP JUMPDEST PUSH2 0xADE DUP5 DUP5 DUP5 DUP5 PUSH1 0x1 PUSH2 0xC99 JUMP JUMPDEST PUSH2 0xB0B JUMPI PUSH1 0x40 MLOAD PUSH4 0x5274AFE7 PUSH1 0xE0 SHL DUP2 MSTORE PUSH1 0x1 PUSH1 0x1 PUSH1 0xA0 SHL SUB DUP6 AND PUSH1 0x4 DUP3 ADD MSTORE PUSH1 0x24 ADD JUMPDEST PUSH1 0x40 MLOAD DUP1 SWAP2 SUB SWAP1 REVERT JUMPDEST POP POP POP POP JUMP JUMPDEST PUSH1 0x0 DUP2 DUP2 MSTORE PUSH1 0x1 PUSH1 0x20 MSTORE PUSH1 0x40 SWAP1 KECCAK256 DUP1 SLOAD PUSH1 0x1 PUSH1 0x1 PUSH1 0xA0 SHL SUB AND PUSH2 0xB47 JUMPI PUSH1 0x40 MLOAD PUSH4 0x223DA473 PUSH1 0xE2 SHL DUP2 MSTORE PUSH1 0x4 ADD PUSH1 0x40 MLOAD DUP1 SWAP2 SUB SWAP1 REVERT JUMPDEST SWAP2 SWAP1 POP JUMP JUMPDEST DUP1 PUSH1 0x3 DUP2 GT ISZERO PUSH2 0xB5E JUMPI PUSH2 0xB5E PUSH2 0xD8A JUMP JUMPDEST PUSH1 0x6 DUP4 ADD SLOAD PUSH1 0xFF AND PUSH1 0x3 DUP2 GT ISZERO PUSH2 0xB77 JUMPI PUSH2 0xB77 PUSH2 0xD8A JUMP JUMPDEST EQ PUSH2 0xBA0 JUMPI PUSH1 0x6 DUP3 ADD SLOAD PUSH1 0x40 MLOAD PUSH4 0xE064752B PUSH1 0xE0 SHL DUP2 MSTORE PUSH2 0xB02 SWAP2 PUSH1 0xFF AND SWAP1 DUP4 SWAP1 PUSH1 0x4 ADD PUSH2 0xF5A JUMP JUMPDEST POP POP JUMP JUMPDEST PUSH2 0xBB1 DUP4 DUP4 DUP4 PUSH1 0x1 PUSH2 0xD0B JUMP JUMPDEST PUSH2 0xBD9 JUMPI PUSH1 0x40 MLOAD PUSH4 0x5274AFE7 PUSH1 0xE0 SHL DUP2 MSTORE PUSH1 0x1 PUSH1 0x1 PUSH1 0xA0 SHL SUB DUP5 AND PUSH1 0x4 DUP3 ADD MSTORE PUSH1 0x24 ADD PUSH2 0xB02 JUMP JUMPDEST POP POP POP JUMP JUMPDEST PUSH1 0x6 DUP2 ADD DUP1 SLOAD PUSH1 0xFF NOT AND PUSH1 0x3 OR SWAP1 SSTORE DUP1 SLOAD PUSH1 0x4 DUP3 ADD SLOAD PUSH1 0x2 DUP4 ADD SLOAD PUSH2 0xC11 SWAP3 PUSH1 0x1 PUSH1 0x1 PUSH1 0xA0 SHL SUB SWAP2 DUP3 AND SWAP3 SWAP2 AND SWAP1 PUSH2 0xBA4 JUMP JUMPDEST PUSH1 0x1 DUP2 ADD SLOAD PUSH1 0x5 DUP3 ADD SLOAD PUSH1 0x3 DUP4 ADD SLOAD PUSH2 0xC38 SWAP3 PUSH1 0x1 PUSH1 0x1 PUSH1 0xA0 SHL SUB SWAP2 DUP3 AND SWAP3 SWAP2 AND SWAP1 PUSH2 0xBA4 JUMP JUMPDEST PUSH1 0x40 MLOAD DUP3 SWAP1 PUSH32 0xD530C80E9CD545DA84FC4400924631FDB0B7BFD9767C317A1FA55B4116C7BE9B SWAP1 PUSH1 0x0 SWAP1 LOG2 POP POP JUMP JUMPDEST PUSH1 0x0 DUP1 MLOAD PUSH1 0x20 PUSH2 0xF7D DUP4 CODECOPY DUP2 MLOAD SWAP2 MSTORE SLOAD PUSH1 0x2 SUB PUSH2 0xC97 JUMPI PUSH1 0x40 MLOAD PUSH4 0x3EE5AEB5 PUSH1 0xE0 SHL DUP2 MSTORE PUSH1 0x4 ADD PUSH1 0x40 MLOAD DUP1 SWAP2 SUB SWAP1 REVERT JUMPDEST JUMP JUMPDEST PUSH1 0x40 MLOAD PUSH4 0x23B872DD PUSH1 0xE0 SHL PUSH1 0x0 DUP2 DUP2 MSTORE PUSH1 0x1 PUSH1 0x1 PUSH1 0xA0 SHL SUB DUP8 DUP2 AND PUSH1 0x4 MSTORE DUP7 AND PUSH1 0x24 MSTORE PUSH1 0x44 DUP6 SWAP1 MSTORE SWAP2 PUSH1 0x20 DUP4 PUSH1 0x64 DUP2 DUP1 DUP13 GAS CALL SWAP3 POP PUSH1 0x1 PUSH1 0x0 MLOAD EQ DUP4 AND PUSH2 0xCF9 JUMPI DUP4 DUP4 ISZERO AND ISZERO PUSH2 0xCEC JUMPI RETURNDATASIZE PUSH1 0x0 DUP3 RETURNDATACOPY RETURNDATASIZE DUP2 REVERT JUMPDEST PUSH1 0x0 DUP9 EXTCODESIZE GT RETURNDATASIZE ISZERO AND DUP4 AND SWAP3 POP JUMPDEST PUSH1 0x40 MSTORE POP PUSH1 0x0 PUSH1 0x60 MSTORE SWAP6 SWAP5 POP POP POP POP POP JUMP JUMPDEST PUSH1 0x40 MLOAD PUSH4 0xA9059CBB PUSH1 0xE0 SHL PUSH1 0x0 DUP2 DUP2 MSTORE PUSH1 0x1 PUSH1 0x1 PUSH1 0xA0 SHL SUB DUP7 AND PUSH1 0x4 MSTORE PUSH1 0x24 DUP6 SWAP1 MSTORE SWAP2 PUSH1 0x20 DUP4 PUSH1 0x44 DUP2 DUP1 DUP12 GAS CALL SWAP3 POP PUSH1 0x1 PUSH1 0x0 MLOAD EQ DUP4 AND PUSH2 0xD65 JUMPI DUP4 DUP4 ISZERO AND ISZERO PUSH2 0xD58 JUMPI RETURNDATASIZE PUSH1 0x0 DUP3 RETURNDATACOPY RETURNDATASIZE DUP2 REVERT JUMPDEST PUSH1 0x0 DUP8 EXTCODESIZE GT RETURNDATASIZE ISZERO AND DUP4 AND SWAP3 POP JUMPDEST PUSH1 0x40 MSTORE POP SWAP5 SWAP4 POP POP POP POP JUMP JUMPDEST PUSH1 0x0 PUSH1 0x20 DUP3 DUP5 SUB SLT ISZERO PUSH2 0xD83 JUMPI PUSH1 0x0 DUP1 REVERT JUMPDEST POP CALLDATALOAD SWAP2 SWAP1 POP JUMP JUMPDEST PUSH4 0x4E487B71 PUSH1 0xE0 SHL PUSH1 0x0 MSTORE PUSH1 0x21 PUSH1 0x4 MSTORE PUSH1 0x24 PUSH1 0x0 REVERT JUMPDEST PUSH1 0x4 DUP2 LT PUSH2 0xDBE JUMPI PUSH4 0x4E487B71 PUSH1 0xE0 SHL PUSH1 0x0 MSTORE PUSH1 0x21 PUSH1 0x4 MSTORE PUSH1 0x24 PUSH1 0x0 REVERT JUMPDEST SWAP1 MSTORE JUMP JUMPDEST PUSH1 0x1 PUSH1 0x1 PUSH1 0xA0 SHL SUB DUP11 DUP2 AND DUP3 MSTORE DUP10 DUP2 AND PUSH1 0x20 DUP4 ADD MSTORE DUP9 DUP2 AND PUSH1 0x40 DUP4 ADD MSTORE DUP8 AND PUSH1 0x60 DUP3 ADD MSTORE PUSH1 0x80 DUP2 ADD DUP7 SWAP1 MSTORE PUSH1 0xA0 DUP2 ADD DUP6 SWAP1 MSTORE PUSH2 0x120 DUP2 ADD PUSH2 0xE06 PUSH1 0xC0 DUP4 ADD DUP7 PUSH2 0xDA0 JUMP JUMPDEST PUSH1 0xE0 DUP3 ADD SWAP4 SWAP1 SWAP4 MSTORE PUSH2 0x100 ADD MSTORE SWAP8 SWAP7 POP POP POP POP POP POP POP JUMP JUMPDEST DUP1 CALLDATALOAD PUSH1 0x1 PUSH1 0x1 PUSH1 0xA0 SHL SUB DUP2 AND DUP2 EQ PUSH2 0xB47 JUMPI PUSH1 0x0 DUP1 REVERT JUMPDEST PUSH1 0x0 DUP1 PUSH1 0x0 DUP1 PUSH1 0x0 DUP1 PUSH1 0xC0 DUP8 DUP10 SUB SLT ISZERO PUSH2 0xE4E JUMPI PUSH1 0x0 DUP1 REVERT JUMPDEST PUSH2 0xE57 DUP8 PUSH2 0xE1E JUMP JUMPDEST SWAP6 POP PUSH1 0x20 DUP8 ADD CALLDATALOAD SWAP5 POP PUSH2 0xE6C PUSH1 0x40 DUP9 ADD PUSH2 0xE1E JUMP JUMPDEST SWAP4 POP PUSH1 0x60 DUP8 ADD CALLDATALOAD SWAP3 POP PUSH2 0xE81 PUSH1 0x80 DUP9 ADD PUSH2 0xE1E JUMP JUMPDEST SWAP2 POP PUSH1 0xA0 DUP8 ADD CALLDATALOAD SWAP1 POP SWAP3 SWAP6 POP SWAP3 SWAP6 POP SWAP3 SWAP6 JUMP JUMPDEST DUP2 MLOAD PUSH1 0x1 PUSH1 0x1 PUSH1 0xA0 SHL SUB SWAP1 DUP2 AND DUP3 MSTORE PUSH1 0x20 DUP1 DUP5 ADD MLOAD DUP3 AND SWAP1 DUP4 ADD MSTORE PUSH1 0x40 DUP1 DUP5 ADD MLOAD DUP3 AND SWAP1 DUP4 ADD MSTORE PUSH1 0x60 DUP1 DUP5 ADD MLOAD SWAP2 DUP3 AND SWAP1 DUP4 ADD MSTORE PUSH2 0x120 DUP3 ADD SWAP1 POP PUSH1 0x80 DUP4 ADD MLOAD PUSH1 0x80 DUP4 ADD MSTORE PUSH1 0xA0 DUP4 ADD MLOAD PUSH1 0xA0 DUP4 ADD MSTORE PUSH1 0xC0 DUP4 ADD MLOAD PUSH2 0xEF5 PUSH1 0xC0 DUP5 ADD DUP3 PUSH2 0xDA0 JUMP JUMPDEST POP PUSH1 0xE0 DUP4 ADD MLOAD PUSH1 0xE0 DUP4 ADD MSTORE PUSH2 0x100 DUP1 DUP5 ADD MLOAD DUP2 DUP5 ADD MSTORE POP SWAP3 SWAP2 POP POP JUMP JUMPDEST PUSH4 0x4E487B71 PUSH1 0xE0 SHL PUSH1 0x0 MSTORE PUSH1 0x11 PUSH1 0x4 MSTORE PUSH1 0x24 PUSH1 0x0 REVERT JUMPDEST PUSH1 0x0 PUSH1 0x1 DUP3 ADD PUSH2 0xF3A JUMPI PUSH2 0xF3A PUSH2 0xF12 JUMP JUMPDEST POP PUSH1 0x1 ADD SWAP1 JUMP JUMPDEST DUP1 DUP3 ADD DUP1 DUP3 GT ISZERO PUSH2 0xF54 JUMPI PUSH2 0xF54 PUSH2 0xF12 JUMP JUMPDEST SWAP3 SWAP2 POP POP JUMP JUMPDEST PUSH1 0x40 DUP2 ADD PUSH2 0xF68 DUP3 DUP6 PUSH2 0xDA0 JUMP JUMPDEST PUSH2 0xF75 PUSH1 0x20 DUP4 ADD DUP5 PUSH2 0xDA0 JUMP JUMPDEST SWAP4 SWAP3 POP POP POP JUMP INVALID SWAP12 PUSH24 0x9B17422D0DF92223018B32B4D1FA46E071723D6817E2486D STOP EXTCODESIZE 0xEC 0xC5 PUSH0 STOP LOG2 PUSH5 0x6970667358 0x22 SLT KECCAK256 0xAA 0xDC MSTORE SWAP4 PUSH26 0xF37280100670894B48DCB798E2FB92AC2F4CC23A5DEA9EC9430D DUP4 PUSH5 0x736F6C6343 STOP ADDMOD XOR STOP CALLER "},"methodIdentifiers":{"ARBITER_TIMEOUT()":"eeacb6b0","MAX_TAKER_DEADLINE_DURATION()":"c9258091","approveDeal(uint256)":"5f9d8efb","arbiter()":"fe25e00a","claimArbiterTimeout(uint256)":"6d143967","claimMakerTimeout(uint256)":"bfc2ae71","createDeal(address,uint256,address,uint256,address,uint256)":"1d0c1ba8","dealCount()":"eadb3c9c","deals(uint256)":"03988f84","fundDeal(uint256)":"85d60ec6","getDeal(uint256)":"82fd5bac","rejectDeal(uint256)":"f7074219"}}}}}