{
  "_format": "hh-sol-artifact-1",
  "contractName": "DealRoomEscrow",
  "sourceName": "contracts/DealRoomEscrow.sol",
  "abi": [
    {
      "inputs": [
        {
          "internalType": "address",
          "name": "_arbiter",
          "type": "address"
        }
      ],
      "stateMutability": "nonpayable",
      "type": "constructor"
    },
    {
      "inputs": [],
      "name": "ArbiterDeadlineNotExpired",
      "type": "error"
    },
    {
      "inputs": [],
      "name": "DealNotFound",
      "type": "error"
    },
    {
      "inputs": [],
      "name": "IdenticalTokens",
      "type": "error"
    },
    {
      "inputs": [],
      "name": "NotArbiter",
      "type": "error"
    },
    {
      "inputs": [],
      "name": "NotMaker",
      "type": "error"
    },
    {
      "inputs": [],
      "name": "NotParty",
      "type": "error"
    },
    {
      "inputs": [],
      "name": "ReentrancyGuardReentrantCall",
      "type": "error"
    },
    {
      "inputs": [
        {
          "internalType": "address",
          "name": "token",
          "type": "address"
        }
      ],
      "name": "SafeERC20FailedOperation",
      "type": "error"
    },
    {
      "inputs": [],
      "name": "TakerCannotBeMaker",
      "type": "error"
    },
    {
      "inputs": [],
      "name": "TakerDeadlineDurationTooLong",
      "type": "error"
    },
    {
      "inputs": [],
      "name": "TakerDeadlineDurationZero",
      "type": "error"
    },
    {
      "inputs": [],
      "name": "TakerDeadlineExpired",
      "type": "error"
    },
    {
      "inputs": [],
      "name": "TakerDeadlineNotExpired",
      "type": "error"
    },
    {
      "inputs": [],
      "name": "UnauthorizedTaker",
      "type": "error"
    },
    {
      "inputs": [
        {
          "internalType": "enum DealRoomEscrow.DealStatus",
          "name": "current",
          "type": "uint8"
        },
        {
          "internalType": "enum DealRoomEscrow.DealStatus",
          "name": "required",
          "type": "uint8"
        }
      ],
      "name": "WrongStatus",
      "type": "error"
    },
    {
      "inputs": [],
      "name": "ZeroAddress",
      "type": "error"
    },
    {
      "inputs": [],
      "name": "ZeroAmount",
      "type": "error"
    },
    {
      "anonymous": false,
      "inputs": [
        {
          "indexed": true,
          "internalType": "uint256",
          "name": "dealId",
          "type": "uint256"
        }
      ],
      "name": "DealCompleted",
      "type": "event"
    },
    {
      "anonymous": false,
      "inputs": [
        {
          "indexed": true,
          "internalType": "uint256",
          "name": "dealId",
          "type": "uint256"
        },
        {
          "indexed": true,
          "internalType": "address",
          "name": "maker",
          "type": "address"
        },
        {
          "indexed": false,
          "internalType": "address",
          "name": "makerToken",
          "type": "address"
        },
        {
          "indexed": false,
          "internalType": "uint256",
          "name": "makerAmount",
          "type": "uint256"
        },
        {
          "indexed": false,
          "internalType": "address",
          "name": "takerToken",
          "type": "address"
        },
        {
          "indexed": false,
          "internalType": "uint256",
          "name": "takerAmount",
          "type": "uint256"
        },
        {
          "indexed": false,
          "internalType": "address",
          "name": "allowedTaker",
          "type": "address"
        },
        {
          "indexed": false,
          "internalType": "uint256",
          "name": "takerDeadline",
          "type": "uint256"
        }
      ],
      "name": "DealCreated",
      "type": "event"
    },
    {
      "anonymous": false,
      "inputs": [
        {
          "indexed": true,
          "internalType": "uint256",
          "name": "dealId",
          "type": "uint256"
        },
        {
          "indexed": true,
          "internalType": "address",
          "name": "taker",
          "type": "address"
        },
        {
          "indexed": false,
          "internalType": "uint256",
          "name": "arbiterDeadline",
          "type": "uint256"
        }
      ],
      "name": "DealFunded",
      "type": "event"
    },
    {
      "anonymous": false,
      "inputs": [
        {
          "indexed": true,
          "internalType": "uint256",
          "name": "dealId",
          "type": "uint256"
        }
      ],
      "name": "DealRefunded",
      "type": "event"
    },
    {
      "inputs": [],
      "name": "ARBITER_TIMEOUT",
      "outputs": [
        {
          "internalType": "uint256",
          "name": "",
          "type": "uint256"
        }
      ],
      "stateMutability": "view",
      "type": "function"
    },
    {
      "inputs": [],
      "name": "MAX_TAKER_DEADLINE_DURATION",
      "outputs": [
        {
          "internalType": "uint256",
          "name": "",
          "type": "uint256"
        }
      ],
      "stateMutability": "view",
      "type": "function"
    },
    {
      "inputs": [
        {
          "internalType": "uint256",
          "name": "dealId",
          "type": "uint256"
        }
      ],
      "name": "approveDeal",
      "outputs": [],
      "stateMutability": "nonpayable",
      "type": "function"
    },
    {
      "inputs": [],
      "name": "arbiter",
      "outputs": [
        {
          "internalType": "address",
          "name": "",
          "type": "address"
        }
      ],
      "stateMutability": "view",
      "type": "function"
    },
    {
      "inputs": [
        {
          "internalType": "uint256",
          "name": "dealId",
          "type": "uint256"
        }
      ],
      "name": "claimArbiterTimeout",
      "outputs": [],
      "stateMutability": "nonpayable",
      "type": "function"
    },
    {
      "inputs": [
        {
          "internalType": "uint256",
          "name": "dealId",
          "type": "uint256"
        }
      ],
      "name": "claimMakerTimeout",
      "outputs": [],
      "stateMutability": "nonpayable",
      "type": "function"
    },
    {
      "inputs": [
        {
          "internalType": "address",
          "name": "makerToken",
          "type": "address"
        },
        {
          "internalType": "uint256",
          "name": "makerAmount",
          "type": "uint256"
        },
        {
          "internalType": "address",
          "name": "takerToken",
          "type": "address"
        },
        {
          "internalType": "uint256",
          "name": "takerAmount",
          "type": "uint256"
        },
        {
          "internalType": "address",
          "name": "allowedTaker",
          "type": "address"
        },
        {
          "internalType": "uint256",
          "name": "takerDeadlineDuration",
          "type": "uint256"
        }
      ],
      "name": "createDeal",
      "outputs": [
        {
          "internalType": "uint256",
          "name": "dealId",
          "type": "uint256"
        }
      ],
      "stateMutability": "nonpayable",
      "type": "function"
    },
    {
      "inputs": [],
      "name": "dealCount",
      "outputs": [
        {
          "internalType": "uint256",
          "name": "",
          "type": "uint256"
        }
      ],
      "stateMutability": "view",
      "type": "function"
    },
    {
      "inputs": [
        {
          "internalType": "uint256",
          "name": "",
          "type": "uint256"
        }
      ],
      "name": "deals",
      "outputs": [
        {
          "internalType": "address",
          "name": "maker",
          "type": "address"
        },
        {
          "internalType": "address",
          "name": "taker",
          "type": "address"
        },
        {
          "internalType": "address",
          "name": "makerToken",
          "type": "address"
        },
        {
          "internalType": "address",
          "name": "takerToken",
          "type": "address"
        },
        {
          "internalType": "uint256",
          "name": "makerAmount",
          "type": "uint256"
        },
        {
          "internalType": "uint256",
          "name": "takerAmount",
          "type": "uint256"
        },
        {
          "internalType": "enum DealRoomEscrow.DealStatus",
          "name": "status",
          "type": "uint8"
        },
        {
          "internalType": "uint256",
          "name": "takerDeadline",
          "type": "uint256"
        },
        {
          "internalType": "uint256",
          "name": "arbiterDeadline",
          "type": "uint256"
        }
      ],
      "stateMutability": "view",
      "type": "function"
    },
    {
      "inputs": [
        {
          "internalType": "uint256",
          "name": "dealId",
          "type": "uint256"
        }
      ],
      "name": "fundDeal",
      "outputs": [],
      "stateMutability": "nonpayable",
      "type": "function"
    },
    {
      "inputs": [
        {
          "internalType": "uint256",
          "name": "dealId",
          "type": "uint256"
        }
      ],
      "name": "getDeal",
      "outputs": [
        {
          "components": [
            {
              "internalType": "address",
              "name": "maker",
              "type": "address"
            },
            {
              "internalType": "address",
              "name": "taker",
              "type": "address"
            },
            {
              "internalType": "address",
              "name": "makerToken",
              "type": "address"
            },
            {
              "internalType": "address",
              "name": "takerToken",
              "type": "address"
            },
            {
              "internalType": "uint256",
              "name": "makerAmount",
              "type": "uint256"
            },
            {
              "internalType": "uint256",
              "name": "takerAmount",
              "type": "uint256"
            },
            {
              "internalType": "enum DealRoomEscrow.DealStatus",
              "name": "status",
              "type": "uint8"
            },
            {
              "internalType": "uint256",
              "name": "takerDeadline",
              "type": "uint256"
            },
            {
              "internalType": "uint256",
              "name": "arbiterDeadline",
              "type": "uint256"
            }
          ],
          "internalType": "struct DealRoomEscrow.Deal",
          "name": "",
          "type": "tuple"
        }
      ],
      "stateMutability": "view",
      "type": "function"
    },
    {
      "inputs": [
        {
          "internalType": "uint256",
          "name": "dealId",
          "type": "uint256"
        }
      ],
      "name": "rejectDeal",
      "outputs": [],
      "stateMutability": "nonpayable",
      "type": "function"
    }
  ],
  "bytecode": "0x60a0604052348015600e575f80fd5b5060405161106f38038061106f833981016040819052602b916085565b60017f9b779b17422d0df92223018b32b4d1fa46e071723d6817e2486d003becc55f00556001600160a01b03811660755760405163d92e233d60e01b815260040160405180910390fd5b6001600160a01b031660805260b0565b5f602082840312156094575f80fd5b81516001600160a01b038116811460a9575f80fd5b9392505050565b608051610f996100d65f395f81816102030152818161056a0152610a3f0152610f995ff3fe608060405234801561000f575f80fd5b50600436106100b1575f3560e01c8063bfc2ae711161006e578063bfc2ae71146101bc578063c9258091146101cf578063eadb3c9c146101d9578063eeacb6b0146101e1578063f7074219146101eb578063fe25e00a146101fe575f80fd5b806303988f84146100b55780631d0c1ba8146101405780635f9d8efb146101615780636d1439671461017657806382fd5bac1461018957806385d60ec6146101a9575b5f80fd5b6101226100c3366004610d44565b600160208190525f91825260409091208054918101546002820154600383015460048401546005850154600686015460078701546008909701546001600160a01b03988916989687169795871696909416949293919260ff9091169189565b60405161013799989796959493929190610d8f565b60405180910390f35b61015361014e366004610e01565b61023d565b604051908152602001610137565b61017461016f366004610d44565b610557565b005b610174610184366004610d44565b61065d565b61019c610197366004610d44565b610707565b6040516101379190610e5e565b6101746101b7366004610d44565b610808565b6101746101ca366004610d44565b61094b565b61015362093a8081565b6101535f5481565b6101536202a30081565b6101746101f9366004610d44565b610a2c565b6102257f000000000000000000000000000000000000000000000000000000000000000081565b6040516001600160a01b039091168152602001610137565b5f610246610a94565b6001600160a01b038716158061026357506001600160a01b038516155b156102815760405163d92e233d60e01b815260040160405180910390fd5b846001600160a01b0316876001600160a01b0316036102b357604051635c6d7b7360e01b815260040160405180910390fd5b855f036102d357604051631f2a200560e01b815260040160405180910390fd5b835f036102f357604051631f2a200560e01b815260040160405180910390fd5b815f036103135760405163b0d288c160e01b815260040160405180910390fd5b62093a8082111561033757604051635711b49360e01b815260040160405180910390fd5b336001600160a01b038416036103605760405163d01eda0160e01b815260040160405180910390fd5b5f80815461036d90610ef0565b918290555090505f61037f8342610f08565b9050604051806101200160405280336001600160a01b03168152602001856001600160a01b03168152602001896001600160a01b03168152602001876001600160a01b031681526020018881526020018681526020015f60038111156103e7576103e7610d5b565b815260208082018490525f6040928301819052858152600180835290839020845181546001600160a01b03199081166001600160a01b03928316178355938601518284018054861691831691909117905593850151600282018054851691861691909117905560608501516003808301805490951691909516179092556080840151600483015560a0840151600583015560c084015160068301805493949193909260ff199091169184908111156104a1576104a1610d5b565b021790555060e08201516007820155610100909101516008909101556104d26001600160a01b03891633308a610aaf565b604080516001600160a01b038a81168252602082018a905288811682840152606082018890528616608082015260a081018390529051339184917f26e9ff2e452f5ef9199235eec51b1377f1edee5e61bd4c08bc6d85fb96415abd9181900360c00190a35061054d60015f80516020610f4483398151915255565b9695505050505050565b61055f610a94565b336001600160a01b037f000000000000000000000000000000000000000000000000000000000000000016146105a85760405163665b32d360e11b815260040160405180910390fd5b5f6105b282610af0565b90506105bf816001610b2a565b60068101805460ff191660021790558054600582015460038301546105f2926001600160a01b0391821692911690610b82565b600181015460048201546002830154610619926001600160a01b0391821692911690610b82565b60405182907fe70f0403e69c896bbcf61b8ca0224ab04d6de1ade440bc896049efe6fe4e0731905f90a25061065a60015f80516020610f4483398151915255565b50565b610665610a94565b5f61066f82610af0565b905061067c816001610b2a565b80546001600160a01b031633148015906106a3575060018101546001600160a01b03163314155b156106c15760405163c8ee2d1d60e01b815260040160405180910390fd5b80600801544210156106e657604051631ee1bdf360e21b815260040160405180910390fd5b6106f08282610bbc565b5061065a60015f80516020610f4483398151915255565b61075360408051610120810182525f80825260208201819052918101829052606081018290526080810182905260a081018290529060c082019081526020015f81526020015f81525090565b5f8281526001602081815260409283902083516101208101855281546001600160a01b039081168252938201548416928101929092526002810154831693820193909352600380840154909216606082015260048301546080820152600583015460a0820152600683015490929160c084019160ff16908111156107d9576107d9610d5b565b60038111156107ea576107ea610d5b565b81526007820154602082015260089091015460409091015292915050565b610810610a94565b5f61081a82610af0565b9050610826815f610b2a565b8060070154421061084a576040516398df8a5d60e01b815260040160405180910390fd5b60018101546001600160a01b031615801590610873575060018101546001600160a01b03163314155b1561089157604051630fb22aa560e21b815260040160405180910390fd5b600180820180546001600160a01b0319163317905560068201805460ff1916828002179055506108c46202a30042610f08565b6008820155600581015460038201546108ec916001600160a01b039091169033903090610aaf565b336001600160a01b0316827fcaee61ccea433411b2a8848cb622487f4368e8c231d05982e0f89e3eb7a1f8c8836008015460405161092c91815260200190565b60405180910390a35061065a60015f80516020610f4483398151915255565b610953610a94565b5f61095d82610af0565b9050610969815f610b2a565b80546001600160a01b031633146109935760405163b331e42160e01b815260040160405180910390fd5b80600701544210156109b857604051631f38cb6f60e01b815260040160405180910390fd5b60068101805460ff191660031790558054600482015460028301546109eb926001600160a01b0391821692911690610b82565b60405182907fd530c80e9cd545da84fc4400924631fdb0b7bfd9767c317a1fa55b4116c7be9b905f90a25061065a60015f80516020610f4483398151915255565b610a34610a94565b336001600160a01b037f00000000000000000000000000000000000000000000000000000000000000001614610a7d5760405163665b32d360e11b815260040160405180910390fd5b5f610a8782610af0565b90506106e6816001610b2a565b610a9c610c44565b60025f80516020610f4483398151915255565b610abd848484846001610c75565b610aea57604051635274afe760e01b81526001600160a01b03851660048201526024015b60405180910390fd5b50505050565b5f81815260016020526040902080546001600160a01b0316610b255760405163223da47360e21b815260040160405180910390fd5b919050565b806003811115610b3c57610b3c610d5b565b600683015460ff166003811115610b5557610b55610d5b565b14610b7e57600682015460405163e064752b60e01b8152610ae19160ff16908390600401610f21565b5050565b610b8f8383836001610ce2565b610bb757604051635274afe760e01b81526001600160a01b0384166004820152602401610ae1565b505050565b60068101805460ff19166003179055805460048201546002830154610bef926001600160a01b0391821692911690610b82565b600181015460058201546003830154610c16926001600160a01b0391821692911690610b82565b60405182907fd530c80e9cd545da84fc4400924631fdb0b7bfd9767c317a1fa55b4116c7be9b905f90a25050565b5f80516020610f4483398151915254600203610c7357604051633ee5aeb560e01b815260040160405180910390fd5b565b6040516323b872dd60e01b5f8181526001600160a01b038781166004528616602452604485905291602083606481808c5af1925060015f51148316610cd1578383151615610cc5573d5f823e3d81fd5b5f883b113d1516831692505b604052505f60605295945050505050565b60405163a9059cbb60e01b5f8181526001600160a01b038616600452602485905291602083604481808b5af1925060015f51148316610d38578383151615610d2c573d5f823e3d81fd5b5f873b113d1516831692505b60405250949350505050565b5f60208284031215610d54575f80fd5b5035919050565b634e487b7160e01b5f52602160045260245ffd5b60048110610d8b57634e487b7160e01b5f52602160045260245ffd5b9052565b6001600160a01b038a8116825289811660208301528881166040830152871660608201526080810186905260a081018590526101208101610dd360c0830186610d6f565b60e08201939093526101000152979650505050505050565b80356001600160a01b0381168114610b25575f80fd5b5f805f805f8060c08789031215610e16575f80fd5b610e1f87610deb565b955060208701359450610e3460408801610deb565b935060608701359250610e4960808801610deb565b9598949750929591949360a090920135925050565b81516001600160a01b03908116825260208084015182169083015260408084015182169083015260608084015191821690830152610120820190506080830151608083015260a083015160a083015260c0830151610ebf60c0840182610d6f565b5060e083015160e083015261010083015161010083015292915050565b634e487b7160e01b5f52601160045260245ffd5b5f60018201610f0157610f01610edc565b5060010190565b80820180821115610f1b57610f1b610edc565b92915050565b60408101610f2f8285610d6f565b610f3c6020830184610d6f565b939250505056fe9b779b17422d0df92223018b32b4d1fa46e071723d6817e2486d003becc55f00a26469706673582212206df3d3af7bcd9769b20635d436fdbc2e380461b9ff5d40a84609c80450fbde8c64736f6c634300081a0033",
  "linkReferences": {},
  "deployedLinkReferences": {}
}